:020000040800F2
:1000000000800020F9C9000849CA000849CA000850
:1000100049CA000849CA000849CA0008000000008F
:1000200000000000000000000000000049CA0008B5
:1000300049CA00080000000049CA0008077F0008FC
:1000400049CA000849CA000849CA000849CA000844
:1000500049CA000849CA000849CA000849CA000834
:1000600049CA000849CA000849CA000849CA000824
:1000700049CA000849CA000849CA000849CA000814
:1000800049CA000849CA000849CA000849CA000804
:10009000ED8B000849CA000849CA000849CA00088F
:1000A00049CA000849CA000849CA000849CA0008E4
:1000B00049CA000849CA000849CA000849CA0008D4
:1000C00049CA000849CA000849CA000849CA0008C4
:1000D00049CA000849CA000849CA000849CA0008B4
:1000E00049CA000849CA000849CA000849CA0008A4
:1000F00049CA000849CA000849CA000849CA000894
:1001000000000000000000000000000049CA0008D4
:1001100049CA000849CA000849CA000849CA000873
:1001200049CA000849CA000849CA000849CA000863
:1001300049CA000849CA0008000000000000000089
:1001400049CA000849CA000849CA0008000000005E
:10015000000000000000000000000000000000009F
:10016000000000000000000049CA000849CA000859
:1001700049CA000800000000000000000000000064
:080180000000000049CA00085C
:1001C000044B05481B1A062B02D9044B03B11847F0
:1001D000704700BFC70A0020C40A002000000000CA
:1001E00005490648091A891001EBD171491002D05E
:1001F000034B03B118477047C40A0020C40A00200B
:100200000000000010B5064C237843B9FFF7D8FF73
:10021000044B13B10448AFF300800123237010BDD9
:10022000C40A00200000000060CA000808B5084B9E
:100230001BB108490848AFF300800848036813B9A8
:10024000BDE80840CCE7064B002BF9D09847F7E70C
:1002500000000000C80A002060CA0008C40A00208C
:100260000000000000B502B4FFB400200CF0DAF882
:10027000FFBC0949086802BC00BD00BF00B503B45B
:100280000549086800F10100086003BC00BD00BF1B
:1002900000B500BD00B500BD0000002000B502B4EF
:1002A000FFB4044E4FF00000CFF600703060FFBC8A
:1002B00002BC00BD1810004881F0004102E000BF00
:1002C00083F0004330B54FEA41044FEA430594EA16
:1002D000050F08BF90EA020F1FBF54EA000C55EA51
:1002E000020C7FEA645C7FEA655C00F0E2804FEA22
:1002F0005454D4EB5555B8BF6D420CDD2C4480EA04
:10030000020281EA030382EA000083EA010180EA33
:10031000020281EA0303362D88BF30BD11F0004F81
:100320004FEA01314FF4801C4CEA113102D04042B7
:1003300061EB410113F0004F4FEA03334CEA1333F2
:1003400002D0524263EB430394EA050F00F0A7800A
:10035000A4F10104D5F1200E0DDB02FA0EFC22FA05
:1003600005F2801841F1000103FA0EF2801843FAF9
:1003700005F359410EE0A5F120050EF1200E012AEA
:1003800003FA0EFC28BF4CF0020C43FA05F3C01828
:1003900051EBE37101F0004507D54FF0000EDCF1A1
:1003A000000C7EEB00006EEB0101B1F5801F1BD34A
:1003B000B1F5001F0CD349085FEA30004FEA3C0C4E
:1003C00004F101044FEA445212F5800F80F09A8044
:1003D000BCF1004F08BF5FEA500C50F1000041EB48
:1003E000045141EA050130BD5FEA4C0C404141EB4C
:1003F000010111F4801FA4F10104E9D191F0000F73
:1004000004BF01460020B1FA81F308BF2033A3F1F5
:100410000B03B3F120020CDA0C3208DD02F1140CEC
:10042000C2F10C0201FA0CF021FA02F10CE002F127
:100430001402D8BFC2F1200C01FA02F120FA0CFC20
:10044000DCBF41EA0C019040E41AA2BF01EB045169
:10045000294330BD6FEA04041F3C1CDA0C340EDC67
:1004600004F11404C4F1200220FA04F001FA02F3AA
:1004700040EA030021FA04F345EA030130BDC4F168
:100480000C04C4F1200220FA02F001FA04F340EA5D
:100490000300294630BD21FA04F0294630BD94F00E
:1004A000000F83F4801306BF81F480110134013DF5
:1004B0004EE77FEA645C18BF7FEA655C29D094EA66
:1004C000050F08BF90EA020F05D054EA000C04BFE4
:1004D0001946104630BD91EA030F1EBF00210020CF
:1004E00030BD5FEA545C05D14000494128BF41F06E
:1004F000004130BD14F580043CBF01F5801130BDD2
:1005000001F0004545F0FE4141F470014FF000005C
:1005100030BD7FEA645C1ABF194610467FEA655C0D
:100520001CBF0B46024650EA013406BF52EA0335AF
:1005300091EA030F41F4002130BD00BF90F0000F9D
:1005400004BF0021704730B54FF4806404F13204D9
:100550004FF000054FF0000150E700BF90F0000F92
:1005600004BF0021704730B54FF4806404F13204B9
:1005700010F0004548BF40424FF000013EE700BF89
:1005800042004FEAE2014FEA31014FEA02701FBF19
:1005900012F07F4393F07F4F81F06051704792F0EB
:1005A000000F14BF93F07F4F704730B54FF4607465
:1005B00001F0004521F0004120E700BF50EA0102B0
:1005C00008BF704730B54FF000050AE050EA01025D
:1005D00008BF704730B511F0004502D5404261EBCD
:1005E00041014FF4806404F132045FEA915C3FF40E
:1005F000DCAE4FF003025FEADC0C18BF03325FEAA7
:10060000DC0C18BF033202EBDC02C2F1200300FA5B
:1006100003FC20FA02F001FA03FE40EA0E0021FA80
:1006200002F11444C1E600BF70B54FF0FF0C4CF46A
:10063000E06C1CEA11541DBF1CEA135594EA0C0F20
:1006400095EA0C0F00F0DEF82C4481EA030621EA5B
:100650004C5123EA4C5350EA013518BF52EA033596
:1006600041F4801143F4801338D0A0FB02CE4FF048
:100670000005E1FB02E506F00042E0FB03E54FF078
:100680000006E1FB03569CF0000F18BF4EF0010E70
:10069000A4F1FF04B6F5007F64F5407404D25FEA6C
:1006A0004E0E6D4146EB060642EAC62141EA55511F
:1006B0004FEAC52040EA5E504FEACE2EB4F1FD0C61
:1006C00088BFBCF5E06F1ED8BEF1004F08BF5FEADF
:1006D000500E50F1000041EB045170BD06F0004691
:1006E00046EA010140EA020081EA0301B4EB5C043E
:1006F000C2BFD4EB0C0541EA045170BD41F4801136
:100700004FF0000E013C00F3AB8014F1360FDEBF5A
:10071000002001F0004170BDC4F10004203C35DA36
:100720000C341BDC04F11404C4F1200500FA05F3B9
:1007300020FA04F001FA05F240EA020001F000425A
:1007400021F0004110EBD37021FA04F642EB0601D0
:100750005EEA430E08BF20EAD37070BDC4F10C04FA
:10076000C4F1200500FA04F320FA05F001FA04F2BE
:1007700040EA020001F0004110EBD37041F10001AA
:100780005EEA430E08BF20EAD37070BDC4F12005B5
:1007900000FA05F24EEA020E20FA04F301FA05F21D
:1007A00043EA020321FA04F001F0004121FA04F2C5
:1007B00020EA020000EBD3705EEA430E08BF20EA95
:1007C000D37070BD94F0000F0FD101F000464000CF
:1007D00041EB010111F4801F08BF013CF7D041EA51
:1007E000060195F0000F18BF704703F00046520055
:1007F00043EB030313F4801F08BF013DF7D043EA26
:100800000603704794EA0C0F0CEA135518BF95EADB
:100810000C0F0CD050EA410618BF52EA4306D1D162
:1008200081EA030101F000414FF0000070BD50EA81
:10083000410606BF1046194652EA430619D094EA0B
:100840000C0F02D150EA013613D195EA0C0F05D1F5
:1008500052EA03361CBF104619460AD181EA030149
:1008600001F0004141F0FE4141F470014FF0000001
:1008700070BD41F0FE4141F4780170BD70B54FF09C
:10088000FF0C4CF4E06C1CEA11541DBF1CEA13551C
:1008900094EA0C0F95EA0C0F00F0A7F8A4EB0504FE
:1008A00081EA030E52EA03354FEA013100F08880F5
:1008B0004FEA03334FF0805545EA131343EA1263BE
:1008C0004FEA022245EA111545EA10654FEA002673
:1008D0000EF000419D4208BF964244F1FD0404F52C
:1008E000407402D25B084FEA3202B61A65EB030588
:1008F0005B084FEA32024FF480104FF4002CB6EB45
:10090000020E75EB030E22BFB61A754640EA0C00C4
:100910005B084FEA3202B6EB020E75EB030E22BF04
:10092000B61A754640EA5C005B084FEA3202B6EB45
:10093000020E75EB030E22BFB61A754640EA9C0004
:100940005B084FEA3202B6EB020E75EB030E22BFD4
:10095000B61A754640EADC0055EA060E18D04FEA92
:10096000051545EA16754FEA06164FEAC30343EA32
:1009700052734FEAC2025FEA1C1CC0D111F4801FFF
:100980000BD141EA00014FF000004FF0004CB6E7F8
:1009900011F4801F04BF01430020B4F1FD0C88BF97
:1009A000BCF5E06F3FF6AFAEB5EB030C04BFB6EBA2
:1009B000020C5FEA500C50F1000041EB045170BD95
:1009C0000EF0004E4EEA113114EB5C04C2BFD4EBC2
:1009D0000C0541EA045170BD41F480114FF0000E46
:1009E000013C90E645EA060E8DE60CEA135594EAC2
:1009F0000C0F08BF95EA0C0F3FF43BAF94EA0C0FC5
:100A00000AD150EA01347FF434AF95EA0C0F7FF439
:100A100025AF104619462CE795EA0C0F06D152EA8D
:100A200003353FF4FDAE1046194622E750EA410671
:100A300018BF52EA43067FF4C5AE50EA41047FF482
:100A40000DAF52EA43057FF4EBAE12E74FEA4102E5
:100A500012F5001215D211D56FF47873B3EB625210
:100A600012D94FEAC12343F0004343EA505311F037
:100A7000004F23FA02F018BF404270474FF00000C9
:100A8000704750EA013005D111F0004008BF6FF007
:100A9000004070474FF00000704700BF4FEA41022E
:100AA000B2F1E04324BFB3F5001CDCF1FE5C0DD9CC
:100AB00001F0004C4FEAC0024CEA5070B2F1004F16
:100AC00040EB830008BF20F00100704711F0804F19
:100AD00021D113F13872BCBF01F00040704741F4DE
:100AE00080114FEA5252C2F11802C2F1200C10FAE2
:100AF0000CF320FA02F018BF40F001004FEAC123C6
:100B00004FEAD32303FA0CFC40EA0C0023FA02F369
:100B10004FEA4303CCE77FEA625307D150EA01333F
:100B20001EBF4FF0FE4040F44000704701F000400F
:100B300040F0FE4040F40000704700BF0023014633
:100B40001A46184602F06AB8014B1868704700BF91
:100B50000800002038B5074D074C2C1BA41005D009
:100B6000013C55F8043D9847002CF9D1BDE83840C8
:100B70000BF07CBF14C4010810C4010870B50F4EFF
:100B80000F4D761BB61018BF002405D0013455F860
:100B9000043B9847A642F9D10A4E0B4D761B0BF049
:100BA0005FFFB61018BF002406D0013455F8043B8F
:100BB0009847A642F9D170BD70BD00BF08C40108B6
:100BC00008C4010810C4010808C4010870B48407EF
:100BD00046D0541E002A41D0CDB2034602E0621E28
:100BE000E4B3144603F8015B9A07F8D1032C2ED91D
:100BF000CDB245EA05250F2C45EA054519D903F183
:100C000010022646103E0F2E42F8105C42F80C5C93
:100C100042F8085C42F8045C02F11002F2D8A4F138
:100C2000100222F00F0204F00F041032032C1344C0
:100C30000DD91E462246043A032A46F8045BFAD828
:100C4000221F22F003020432134404F003042CB1E7
:100C5000C9B21C4403F8011BA342FBD170BC70470E
:100C600014460346C2E700BF0EB400B582B003AB22
:100C7000816853F8042B019300F096FB02B05DF8F5
:100C800004EB03B0704700BF0FB400B5074983B051
:100C900004AB086853F8042B8168019300F084FBCF
:100CA00003B05DF804EB04B0704700BF08000020FB
:100CB000826804F0EFBD00BF034B1B6801469A68D1
:100CC000184604F0E7BD00BF08000020F0B5054657
:100CD00089B008460C4600F073F9AB6B144F0494CE
:100CE0000126441C04A9022203940590AC680697CF
:100CF000079601910292B3B1B4F90C309A0406D46C
:100D0000626E43F4005322F40052A38162662146CE
:100D1000284601AA03F08CFA002814BF4FF0FF30D8
:100D20000A2009B0F0BD284603F02CF9E4E700BF23
:100D300094C30108024B01461868FFF7C7BF00BF04
:100D4000080000202DE9F043514C256883B004468B
:100D50000F4690461E4615B1AB6B002B79D0B8F10B
:100D6000020F04D0B8F1010F7FD8002E7DDB2146A1
:100D7000284602F0F7FF216B41B104F1400399428C
:100D800002D0284603F06CF900232363B4F90C3039
:100D90000022A26162601A0654D423F44A6323F04D
:100DA0000303B8F1020FA38139D001AB6A46214693
:100DB000284603F04FFCA3891843A08126B327B32C
:100DC000AB6B002B4DD0009BB4F90C0027609E420A
:100DD0001CBF40F40060A081B8F1010F08BF40F0D3
:100DE000010083B208BFA08103F0080080B2276130
:100DF000666118B313F001002FD000207642A6617F
:100E0000A06003B0BDE8F083009E304603F096FC7E
:100E1000074668B3A38943F08003A381D0E700208D
:100E200004F1430243F0020300250121A381A560E0
:100E300022602261616103B0BDE8F083A06003B06D
:100E4000BDE8F0832169284603F00AF9B4F90C30B3
:100E5000A3E7284603F096F881E7A66003B0BDE853
:100E6000F083284603F08EF8ADE74FF0FF30E2E75D
:100E7000DDF80090B14506D0484603F05FFC074618
:100E800008B14E46C6E7B4F90C304FF0FF30C7E763
:100E900008000020114B30B41D6810F8014B2B19CD
:100EA00022465B7803F00303012B11F8013B08BFD6
:100EB00004F12002EC18647804F00304012C06D03D
:100EC000D21A01D1002BE8D1104630BC7047203334
:100ED000D21AE2D0104630BC704700BF0400002098
:100EE00080EA0102844612F0030F4FD111F0030F84
:100EF00032D14DF8044D11F0040F51F8043B0BD0E2
:100F0000A3F101329A4312F0803F04BF4CF8043B36
:100F100051F8043B16D100BF51F8044BA3F1013244
:100F20009A4312F0803FA4F101320BD14CF8043BFC
:100F3000A24312F0803F04BF51F8043B4CF8044B2D
:100F4000EAD023460CF8013B13F0FF0F4FEA33239E
:100F5000F8D15DF8044B704711F0010F06D011F87D
:100F6000012B0CF8012B002A08BF704711F0020F6B
:100F7000BFD031F8022B12F0FF0F16BF2CF8022B56
:100F80008CF8002012F47F4FB3D1704711F8012B79
:100F90000CF8012B002AF9D1704700BF00000000B7
:100FA0000000000000000000000000000000000041
:100FB0000000000000000000000000000000000031
:100FC00090F800F06DE9024520F007016FF0000C89
:100FD00010F0070491F820F040F049804FF0000431
:100FE0006FF00700D1E9002391F840F000F108000C
:100FF00082FA4CF2A4FA8CF283FA4CF3A2FA8CF344
:101000004BBBD1E9022382FA4CF200F10800A4FAAA
:101010008CF283FA4CF3A2FA8CF3E3B9D1E90423FE
:1010200082FA4CF200F10800A4FA8CF283FA4CF335
:10103000A2FA8CF37BB9D1E9062301F1200182FAEF
:101040004CF200F10800A4FA8CF283FA4CF3A2FAF5
:101050008CF3002BC6D0002A04BF04301A4612BA03
:10106000B2FA82F2FDE8024500EBD2007047D1E906
:10107000002304F00305C4F100004FEAC50514F095
:10108000040F91F840F00CFA05F562EA05021CBF66
:1010900063EA050362464FF00004A9E7024B1A68B1
:1010A00001235C3200F002B808000020F0B420B345
:1010B00007460D4617F8016B01E0A64216D015F859
:1010C000014B002CF9D1EEB13E460C4616F8015BFF
:1010D00000E073B114F8013B9D42FAD15DB10023E9
:1010E0003B70166006463046F0BC704763B1384628
:1010F000DEE73746E8E72E46F3E710680028D7D149
:101100000646F0E71660EEE7176006460370EAE76A
:101110000123FFF7CBBF00BF2DE9F04F474C8346BB
:101120000E46D4F800E000E02646344614F8015B91
:101130000EEB0500407800F0080000F0FF080028E2
:10114000F2D12D2D5CD02B2D04BF7578B41C002B53
:101150003ED0102B60D09A46B8F1000F0CBF6FF054
:1011600000404FF000400027B0FBFAF9BC460AFBF4
:1011700019000CE0303DAB4219DD7E1C05D0CC459A
:1011800023D820D00AFB0C5C012714F8015B0EEB7E
:101190000506767816F0040FECD116F0030606D09B
:1011A000012E14BF57263726AD1BAB42E5DC7B1C56
:1011B00016D0B8F1000F10D16046002A39D0DFB93F
:1011C0001160BDE8F08F8542DCDD4FF0FF37DCE7D2
:1011D000302D1AD00A239A46BEE7CCF1000CEBE77B
:1011E000B8F1000F4FF022030CBF6FF000404FF03A
:1011F0000040CBF80030F2B1611E1160BDE8F08F05
:10120000B41C75784FF00108A1E7237803F0DF03E1
:10121000582B08D008239EE7302D9CD1207800F071
:10122000DF00582897D14FF0100A657853460234F2
:1012300092E7BDE8F08FBDE8F08F00BF040000200A
:1012400010B4044C13460A46014620685DF8044B6E
:10125000FFF762BF080000202DE9F04F494C82469D
:101260000E46D4F800E000E02646344614F8015B50
:101270000EEB0500407800F0080000F0FF0C00289D
:10128000F2D12D2D54D02B2D04BF7578B41C5BB139
:10129000102B5ED04FF0FF38B8FBF3F803FB08FBD0
:1012A0006FEA0B0B994607E0302D46D00A23DFF892
:1012B000D88099464FF0050B002738460CE0303DAA
:1012C000AB4219DD7E1C05D0404522D81FD009FB5A
:1012D0000050012714F8015B0EEB0506767816F036
:1012E000040FECD116F0030606D0012E14BF5726CA
:1012F0003726AD1BAB42E5DC002F0FDBBCF1000F46
:1013000000D0404242B17FB91160BDE8F08F5D4529
:10131000DDDD4FF0FF37DDE7BDE8F08F2223CAF8AF
:1013200000304FF0FF305AB3611E1160BDE8F08FFE
:10133000B41C75784FF0010CA9E7237803F0DF03A4
:10134000582B0DD0082399464FF0070B6FF06048DB
:10135000B2E7302D0ED1207800F0DF00582809D1F7
:101360004FF0100965784B464FF00F0B02346FF0C9
:101370007048A1E74FF00F0B6FF0704899469BE75C
:10138000BDE8F08F040000209999991910B4044C1D
:1013900013460A46014620685DF8044BFFF75CBF20
:1013A00008000020000000002DE9F04FC1B01C46ED
:1013B000049116460546069003F03CF90368139322
:1013C0001846FFF7FDFD0A9412901DB1AB6B002B80
:1013D00000F024810498B0F90C2093B2990407D44A
:1013E000416E42F4005321F40051838141669BB267
:1013F0001A0740F1DE80049A1269002A00F0D980B1
:1014000003F01A030A2B00F0E2809FED877B002394
:1014100025930E93249315930793854B8DED107BA5
:1014200003F1100A30AB23939946B04698F8003088
:101430004446EBB1252B02D11AE0252B03D014F83A
:10144000013F002BF9D1C8EB04058DB1249B259AEF
:10145000C9F8008001332A44072BC9F804502592AB
:10146000249300F3C28009F10809079B2B440793DA
:101470002378002B00F0C28000231A468DF86F30CD
:101480001946089303934FF0FF3B637804F101087A
:101490005D4608F10108A3F12000582800F25884A5
:1014A000DFE810F00E0456045604170456045604E0
:1014B00056045604560456046103480456045D005D
:1014C0000801560424016F036F036F036F036F035A
:1014D0006F036F036F036F035604560456045604DC
:1014E0005604560456045604560456047F039C03BF
:1014F00056049C035604560456045604EA03560444
:1015000056042B015604560456045604560454013E
:1015100056045604B30256045604560456045604A0
:1015200056045604560456045604F4020E039C0353
:101530009C039C033E030E035604560445035604C5
:101540004F03CA0064001F04560427045604F10325
:1015500056045604F90308980A9340420890039BE6
:1015600043F00403039398F8003092E70A98AB46DF
:10157000002104688DF86F10071D0398302378222E
:101580008B458DF870304FF000058DF8712040F0DC
:101590000203C0F2FA8320F0800343F002030393B6
:1015A00054EA05030A9700F0CB830F460D922148B9
:1015B0005CE20499069801F0CDFA002841F03C80E5
:1015C000049B9B8903F01A030A2B7FF41EAF049936
:1015D000B1F90E30002BFFF618AF234632460698BD
:1015E00001F082FA41B0BDE8F08F23AA0499069871
:1015F00004F080FD48B90DF1C00936E7259B23B101
:101600000698049923AA04F075FD049B9B8959064A
:1016100001F11280079841B0BDE8F08F069802F002
:10162000B1FCD7E6AFF3008000000000000000002E
:1016300014D00008BCC301080D93AB46002A41F04A
:101640002B82039A12F0200364D00A9F073727F0F9
:101650000703002703F10801BB450A91D3E90045C0
:101660008DF86F70C0F2BA8622F08003039354EABB
:10167000050300F0828330AEE20842EA4572E908D1
:1016800004F007030D461446303354EA050206F809
:10169000013DF1D1039AD20740F19680302B00F042
:1016A00093803022731E06F8012C30AAD21A0992B8
:1016B0001E468CE098F800302A2B08F1010401F056
:1016C000C981A3F13000092898BF002501F2668185
:1016D00014F8013B05EB850500EB4505A3F130004F
:1016E0000928F5D945EAE575A046D4E6039B43F001
:1016F0008003039398F80030CBE60D93AB46002AA5
:1017000041F0D281039B43F010030393039A12F03C
:1017100020039AD1039911F0100200F034860A9840
:101720008DF86F30BBF1000F046800F104074FF033
:101730000005C0F252860A4622F08002039254EA63
:1017400005020A9700F019831F4694E70D93AB46F4
:10175000002A41F09981039B43F010030393039AFD
:1017600012F0200300F0FA840A9F073727F00703DE
:10177000002703F10801BB450A91D3E900458DF824
:101780006F70C0F2238522F08003039354EA0503AF
:1017900000F0BC81002D08BF0A2CC0F01B8530AEC4
:1017A000204629460A22002305F060FE303206F862
:1017B000012D2046294600230A2205F057FE044643
:1017C0000D4654EA0503EBD130AB9B1B0993099BF3
:1017D0005B45B8BF5B46059300230F9317B1059B8C
:1017E00001330593039B13F002030B9302D0059B77
:1017F00002330593039B13F084030C9340F0D282D1
:10180000089B059A9D1A002D40F3CC82102D259936
:10181000249AA84F27DD149648461024B946049E02
:101820002F46069D04E0103F102F00F1080016DD42
:101830000132A04B24921031072A259180E818002C
:10184000F1DD23AA3146284604F054FC00287FF439
:10185000DCAE103F102F2599249A30A8E8DC149EA6
:101860003D464F46814601326C18072A2594249242
:10187000C9F80070C9F8045000F328849DF86F700F
:1018800009F1080977B1249B013301340DF16F018F
:101890000122072B2594249389E8060000F3A083F6
:1018A00009F108090B9B6BB1249B013302341CA97D
:1018B0000222072B2594249389E8060000F39C83D9
:1018C00009F108090C9B802B00F0D082099BC3EB27
:1018D0000B07002F33DD784A249B0B92102F22DD5B
:1018E00022464FF0100B069D049C04E0103F102F81
:1018F00009F1080916DD01331032072B25922493D4
:1019000089E8000CF2DD23AA2146284604F0F2FB08
:1019100000287FF47AAE103F102F259A249B0DF1FA
:10192000C009E8DC144601330B9A24933C44072B8E
:10193000259489E8840000F3478309F10809039B93
:10194000DD0500F13182249B0999C9F8006001335B
:101950000C44072B2594C9F80410249300F31E832C
:1019600009F10809039B58073FD5089B059A9D1A62
:10197000002D3ADD102D249B4E4F23DD22461026EC
:10198000DDF818B0049C04E0103D102D09F10809A1
:1019900017DD0133474924931032072B259289E83C
:1019A0004200F1DD23AA2146584604F0A3FB00289B
:1019B0007FF42BAE103D102D259A249B0DF1C0090C
:1019C000E7DC144601332C44072B25942493C9F8F3
:1019D0000070C9F8045008DD23AA0499069804F0A1
:1019E00089FB00287FF411AE259C079B089A059976
:1019F0008A42ACBF9B185B180793002C40F0DA8238
:101A0000002324930DF1C00910E50D93AB46002A85
:101A100041F03680039B29489C0640F146810A9F8D
:101A2000073727F00703D3E9004503F108020A92BC
:101A3000039A12F0010700F0EB8254EA050300F06C
:101A400080859DF834208DF871200027039A8DF849
:101A50006F703023BB458DF8703042F00203C0F246
:101A6000358722F0800343F00203039330AE23094D
:101A700004F00F0143EA05732A091C461546435C2E
:101A800006F8013D54EA0503F1D19DE60A990D934C
:101A90000A688DF8982000230A461F468DF86F309B
:101AA000043201230593BB460F970A92099326AE91
:101AB00098E600BF14D0000824D00008A8C301088D
:101AC0000D93AB46002A40F0E387039B9B0674D539
:101AD0000A9F073727F00707D7E9002307F1080116
:101AE0000A9114461D46002A73F10003C0F23A849D
:101AF000BBF1000F9DF86F70C0F26883039B23F069
:101B00008003039354EA05037FF444AEBBF1000F56
:101B100040F008844FF0000BCDF824B030AE56E60C
:101B2000039B43F04003039398F80030B1E498F826
:101B300000306C2B00F0D085039840F0100003902B
:101B4000A7E4002A40F09887039B9F0640F1E284B7
:101B50000A9A07991368CD170846043229460A9253
:101B6000C3E9000162E40A9C236808931846002830
:101B7000234603F10403FFF6EEAC0A9398F8003015
:101B800087E4A3F1300000231C4618F8013B04EB66
:101B9000840400EB4404A3F130000928F5D908942B
:101BA00079E40D93AB46002A40F06287039B43F033
:101BB00010030393039B9B068AD4039BDF0600F16B
:101BC0009482039B5E0640F190820A99B1F900402D
:101BD0000431E51722462B460A9184E70D93AB4664
:101BE000002A40F06987039B0A9F1D0707F107073A
:101BF00040F1858427F0070393ED007B8DED107B8A
:101C000003F108020A92DDE9101222F00043169156
:101C10001793DDE916454FF0FF3220462946B54BB4
:101C200005F00EFC002840F0EB834FF0FF32B14B83
:101C30002046294605F0E6FB002840F0E18300221B
:101C40000023DDE9100105F0D3FB002840F04486B5
:101C50009DF86F70A84EA94B039921F08001039164
:101C60000D9903224FF0000B05924729D8BF1E465D
:101C70000992CDF83CB0B1E5039B43F00803039310
:101C800098F8003005E40D93AB46002A3FF467ADA9
:101C90008DF86F1063E50D93AB46002A40F008877E
:101CA000039B97489C063FF5BAAE039BD90640F1CB
:101CB00098830A9A1346043314680A930025B7E6FA
:101CC00098F8003000297FF4E4AB01222021FFF7CF
:101CD000E0BB039B43F00103039398F80030FFF748
:101CE000D8BB039B43F02003039398F80030FFF721
:101CF000D0BB0A9A0D93166800248DF86F40171D0B
:101D0000002E00F0AC85002DC0F2FD842A4621464D
:101D1000304602F0DDFF002800F01686831B099391
:101D2000A34623EAE3730A970593CDF83CB09DF8E8
:101D30006F7053E598F8003001222B21FFF7A9BB03
:101D40006F480D92BBF1000F40F073815F46E1E6F2
:101D50000D93002A40F0A4860D9A002A3FF44EAC61
:101D6000002301211F4605918DF898208DF86F30D2
:101D70009B460F93099126AE34E5BBF1000F00F0AE
:101D8000D48500270024002575E45D4803930D9257
:101D900054EA05030A974FF000077FF467AE00246A
:101DA000002563E6259C6DE50D9B652B40F3AE8019
:101DB00000220023DDE9100105F010FB002800F0EF
:101DC0003A81249B4F4AC9F8002001330134012293
:101DD000072B25942493C9F8042000F3CC8309F140
:101DE00008091D9B0E9A934203DB039BD8077FF5DE
:101DF000B9AD249B1299139AC9F8002001330C4401
:101E0000072B2594C9F80410249300F36F8409F17B
:101E100008090E9B5D1E002D7FF7A4AD3A4A249B56
:101E20000B92102D40F3B4811026069FDDF810B000
:101E300005E009F10809103D102D40F3A981013397
:101E40001034072B25942493C9F800A0C9F8046026
:101E5000EFDD23AA5946384604F04CF900287FF4F8
:101E6000D4AB259C249B0DF1C009E4E7089B059A9F
:101E70009F1A002F7FF72AAD234A249B0B92102F25
:101E80002BDD4A462146B94610253746069C049E5E
:101E900006E0A9F11009B9F1100F02F1080218DDEE
:101EA00001331031072B25912493C2F800A055600F
:101EB000EFDD23AA3146204604F01CF900287FF408
:101EC000A4ABA9F11009B9F1100F2599249B30AAF0
:101ED000E6DC3E460C464F46914601330B9A24936E
:101EE0003C44072B259489E8840000F32B8209F1F8
:101EF0000809EBE4FFFFEF7F9CC3010898C30108CA
:101F0000BCC30108D8C3010824D000080E9B249D3F
:101F1000012B40F3D081013501340123072D259495
:101F20002495C9F80060C9F8043000F3E18109F193
:101F30000809129A139BC9F8003001351444072D83
:101F400025942495C9F8042000F3DF8109F10809DC
:101F500000230022DDE9100105F040FA0E9B002865
:101F600040F0CC80013B013501361C44072D2495FF
:101F70002594C9F80060C9F8043000F3AC8109F178
:101F80000809159AC9F80420013514441FAB072D20
:101F900025942495C9F800307FF7E2AC23AA049970
:101FA000069804F0A7F800287FF42FAB259C0DF1CC
:101FB000C009D7E423AA0499069804F09BF80028E6
:101FC0003FF41EADFFF721BB23AA0499069804F045
:101FD00091F800287FF419AB259C0DF1C009AEE4FF
:101FE00023AA0499069804F085F800287FF40DAB25
:101FF000259C0DF1C00955E423AA0499069804F024
:1020000079F800287FF401AB259C0DF1C00959E453
:10201000BBF1000F8DF86F70C0F20B8322F08003CC
:10202000039354EA05037FF421ADBBF1000F3FF4A5
:102030008DAE0027B3E61D9D002D40F3A8820F9BB7
:102040000E9A9342A8BF1346002B1D460DDD249B1C
:10205000C9F8006001332C44072B2594C9F80450BB
:10206000249300F3828309F108090F9B002DA8BF78
:102070005B1B002B1D4640F3BE80B94A249B0B928C
:10208000102D40F36B8222461027DDF818B0049C17
:1020900005E009F10809103D102D40F35E8201337F
:1020A0001032072B25922493C9F800A0C9F80470B8
:1020B000EFDD23AA2146584604F01CF800287FF4DF
:1020C000A4AA259A249B0DF1C009E4E723AA049948
:1020D000069804F00FF800287FF497AA9DF86F7017
:1020E000259C0DF1C009FFF7CDBB0A9A1468134671
:1020F0000433E5170A9322462B46F4E45E1E002EB5
:102100007FF73FAF964B0B93102E40F31081CDF825
:1021100024801027B046DDF818B0049E07E009F1CE
:102120000809A8F11008B8F1100F40F3FD8001353F
:102130001034072D25942495C9F800A0C9F804701F
:10214000EDDD23AA3146584603F0D4FF00287FF482
:102150005CAA259C249D0DF1C009E2E7039911F0CA
:10216000100220D00A988DF86F30BBF1000F046880
:1021700000F104074FF0000526DB0A4622F080023A
:10218000039254EA05020A971F467FF403ABBDE4AD
:1021900001330B9A24932C44072B259489E82400BF
:1021A0007FF7DEABFAE6039911F0400340F0488276
:1021B0000A998DF86F30BBF1000F0C6801F104072C
:1021C0004FF0000580F21A810A971F4654EA050372
:1021D0007FF4E0AA40AE303406F8414DFFF7F4BA80
:1021E00023AA0499069803F085FF00287FF40DAA1E
:1021F000259C0DF1C0090F9A1D9B324417460E9A7B
:10220000934247DB039AD20744D40E990E44F51B40
:10221000CB1A9D42A8BF1D46002D2E460DDD249AE7
:10222000C9F8007001322C44072A2594C9F80450DB
:10223000249200F32B8309F10809002EACBF9D1BEB
:102240001D46002D7FF78EAB454A249B0B92102D27
:102250009EDD1026069FDDF810B004E009F10809A4
:10226000103D102D94DD01331034072B2594249359
:10227000C9F800A0C9F80460F0DD23AA5946384621
:1022800003F038FF00287FF4C0A9259C249B0DF1A2
:10229000C009E5E7249A12981399C9F80010013291
:1022A0000444072A2594C9F80400249200F3CA8242
:1022B00009F10809A9E7039BDF073FF52CAE0135BB
:1022C00001340123072D25942495C9F80060C9F82D
:1022D00004307FF754AE23AA0499069803F00AFF4E
:1022E00000287FF492A9259C249D0DF1C00948E6A1
:1022F00023AA0499069803F0FDFE00287FF485A91F
:10230000259C249D0DF1C00913E623AA0499069883
:1023100003F0F0FE00287FF478A9259C249D0DF1A0
:10232000C00915E6002455E74646DDF824800B9BDE
:1023300001353444072D2594249589E848007FF71A
:102340001EAEC8E723AA0499069803F0D3FE00281E
:102350007FF45BA9259C0DF1C009FFF7B7BA00BF58
:1023600024D0000864424FF02D0765EB4505BBF112
:10237000000F8DF86F70FFF60DAA039B23F080030A
:102380000393FFF707BA039911F0400317D00A9897
:102390008DF86F200346BBF1000F03F1040304889E
:1023A0004FF00005C0F2148321F08001039154EA3C
:1023B00005010A933FF4E1AC1746FFF75CB90A99AF
:1023C0008DF86F30BBF1000F0C6801F104074FF07E
:1023D000000502DB039AFFF7AFB90A970027FFF762
:1023E0004AB9039B0A9A13F0400F134600F040814C
:1023F000043314880A930025FFF71ABB039ABDE63D
:10240000DDE9100102460B4605F01AF8002840F0FD
:10241000E1820D9BBBF1FF3F23F0200700F05982C2
:10242000472F00F05381119B039A002B42F48072D6
:102430000B92C0F256829DED107B8DED187B002330
:1024400005930D9B662B00F03082462B00F0238114
:10245000452F0CBF0BF101055D4621AA1EAB019271
:1024600000932A461DAB02219DED180B069800F043
:10247000BBFC0D9B672B064640F07182039BDA077D
:1024800040F19082741900220023DDE9180104F064
:10249000A5FF002840F07581219B9C4206D9302180
:1024A0005A1C21921970219B9C42F9D89B1B472FE3
:1024B0000E9300F053810D9B652B40F35F820D9BC3
:1024C000662B1D9B0F9300F022820F9A0E998A4271
:1024D000C0F21082039BDB0700F1668222EAE273FE
:1024E000099267220D92059A002A40F01481059303
:1024F0000B9B039393469DF86F70FFF76FB927F01E
:10250000070797ED007B07F108038DED107B0A9319
:10251000FFF779BB039BDE060BD4039B5D0608D552
:102520000A9A136804320A92BDF81C201A80FEF73A
:102530007DBF0A9A136804320A92079A1A60FEF75E
:1025400075BF0027BB458DF86F70FFF628AC039B65
:1025500023F080030393FFF7F5BB144601330B9A76
:1025600024932C44072B259489E824003FF738AEA8
:1025700009F108093FE623AA0499069803F0BAFD79
:1025800000287FF442A8259C0DF1C00929E4249B72
:10259000BA4AC9F80020013301340122072B2594DF
:1025A0002493C9F8042069DC09F108092DB90E9BB0
:1025B0001BB9039BD9077FF5D5A9249B1299139AC0
:1025C000C9F8002001330C44072B2594C9F80410E6
:1025D000249300F3D58109F108096D42002D40F3E1
:1025E000B080A74A0B92102D40F31F81224610277E
:1025F000DDF818B0049C05E009F10809103D102D24
:1026000040F3128101331032072B25922493C9F82D
:1026100000A0C9F80470EFDD23AA2146584603F054
:1026200069FD00287EF4F1AF259A249B0DF1C009C5
:10263000E4E70A9FFFF7ACBB4FF0FF30FEF7EBBFBC
:102640000A988DF86F200346BBF1000F03F10403D5
:1026500004884FF00005C0F2B08121F080010391A1
:1026600054EA05010A9317467FF494A8FFF74EBA7F
:10267000043314680A930025FFF7DAB923AA0499F2
:10268000069803F037FD00287EF4BFAF1D9D259C02
:102690000DF1C0098AE721AA1EAB019200935A46A8
:1026A0001DAB03219DED180B069800F09DFB5D46C8
:1026B00006460D9B462B06EB05047FF4E4AE33780B
:1026C000302B00F096811D9D2C44DCE6BBF1000F01
:1026D00008BF4FF0010BA6E6039B43F020030393D2
:1026E00008F1010898F80030FEF7D3BE23AA049938
:1026F000069803F0FFFC00287EF487AF259C0DF1BF
:10270000C009FFF786BB3046FEF75AFCA3460346D6
:102710000990FFF706BB2D2705930B9B03938DF8BC
:102720006F704FF0000BFFF75AB823AA0499069870
:1027300003F0E0FC00287EF468AF259C249B0DF19B
:10274000C0090E99C9F8006001330C44072B259489
:102750002493C9F804107FF703A91FE41D9BD81C1C
:1027600011DB9B450FDB0F93AFE623AA0499069874
:1027700003F0C0FC00287EF448AF259C0DF1C00991
:1027800073E4234692E60D9A023A0D92013B002B28
:102790009DF834201D93B8BF5B428DF87C20B4BFF8
:1027A0002D222B22092B8DF87D2040F309810DF17C
:1027B0008B000446334A82FB0321DA17C2EBA102E5
:1027C00002EB8201A3EB410303F13001092A134616
:1027D00004F8011DEEDC21463033DAB201F8012D98
:1027E000884240F26D810DF17E01234601E013F82D
:1027F000012B01F8012B9842F9D1431C1B1B0DF151
:102800007E0213441FAA9B1A0E9A1593012A1344A1
:10281000099340F3FC80099B129A13440022099308
:102820000F9223EAE3735EE6144601330B9A249376
:102830002C44072B259489E824003FF776AF09F153
:1028400008097EE723AA0499069803F053FC0028A0
:102850007EF4DBAE1D9B259C0DF1C009D5E4062D51
:102860002B4628BF0623099323EAE373B3460A974E
:102870000F9637460593044EFEF7B0BFD8C3010844
:1028800024D0000867666666D0C3010823AA0499AD
:10289000069803F02FFC00287EF4B7AE1D9B0E9A1D
:1028A000259CD31A0DF1C009C7E421AA1EAB0192E1
:1028B00000935A461DAB03219DED180B069800F0BE
:1028C00093FA5D46064600EB0B04F8E60393FFF728
:1028D000CDB84FF0060BA6E52D278DF86F70FFF7EA
:1028E000B9B9DDE9101202F1004319932D231891B3
:1028F0000593A6E5129A0E9B13440F9A0993002A9A
:1029000040F38F80672223EAE3730D92EBE5002BFF
:1029100040F38F80BBF1000F62D1039AD1075FD4DF
:102920001A46099223EAE373DDE5039BDB075F4662
:1029300005D540AE302306F8413DFEF745BFCDF842
:1029400024B030AEFEF743BF25EAE5730A9705933E
:10295000099583460F909DF86F70FEF73FBF0D9B62
:10296000472B7FF48FAD039BDC073FF5A2AE219B85
:10297000472FA3EB06030E933FF4F0AE1D9B05E734
:1029800023AA0499069803F0B5FB00287EF43DAE17
:102990001D9D259C249B0DF1C0091EE6A046002527
:1029A000FEF779BD219B81E5129A0F9B13446722A4
:1029B00009930D9223EAE37395E50A93174605E41C
:1029C000303330228DF87F308DF87E2020AB19E730
:1029D0000A9303E53C4E3D4B9DF86F70FFF73CB901
:1029E0000F9B129A9D1805EB0B03099323EAE373DF
:1029F00079E500220023DDE9180104F0EFFC00284E
:102A00007FF461AEC5F101051D952C443BE5039BA8
:102A100013F001037FF4FFAE0F93099B23EAE373E6
:102A200061E50F9B099AC3F101031A441346099209
:102A300068E7BBF1000F02D1039BDA0707D5129BB1
:102A40005D1C05EB0B03099323EAE3734BE50123BC
:102A5000099348E50A9898F8013005680430002D7C
:102A60000A90A046BEF615AD4FF0FF35FEF711BD3A
:102A70008DF86F10FFF79AB88DF86F10FFF764B8F4
:102A80008DF86F10FEF7C6BF8DF86F10FEF763BEAE
:102A90008DF86F10FFF719B88DF86F10FEF7D1BDE4
:102AA0008DF86F10FFF758B98DF86F10FEF72ABE3A
:102AB0008DF86F10FFF7F4B88DF86F10FFF793B82B
:102AC0000DF17E039EE600BFA4C30108A0C3010868
:102AD00010B4044C13460A46014620685DF8044BC6
:102AE000FEF762BC08000020F0B50C46ADF26C4D5C
:102AF0008989666EE589199621F00201666AADF84A
:102B00000E500025E769ADF80C10099606951AAE2F
:102B10004FF48065694600960496029505950797DF
:102B20000646FEF741FC051E07DB3046694601F00C
:102B300019F9002818BF4FF0FF35BDF80C305B06BF
:102B400003D5A38943F04003A38128460DF26C4DC1
:102B5000F0BD00BF38B5304B1B6805460C4613B1BD
:102B60009A6B002A38D0B4F90C2093B218070CD510
:102B70002069A8B113F001021ED0636900225B42F4
:102B8000A361A260F0B1002038BDD9063CD558073A
:102B900026D4206942F00803A3819BB20028E9D122
:102BA00003F42072B2F5007FE4D02846214601F0FC
:102BB00081FDA3892069DDE7990758BF6269A2609A
:102BC0000028E0D1B4F90C301A06DDD543F04003FB
:102BD000A3814FF0FF3038BD184601F0D3F9C2E7AA
:102BE000216B51B104F14003994204D0284601F011
:102BF00037FAB4F90C2000232363002320696360B3
:102C000022F024022060C5E742F0400209232B6035
:102C10004FF0FF30A28138BD080000202DE9F047B9
:102C2000254C2568D5F8484106468846924699467F
:102C3000C4B360681F2817DC431C76B104EB800521
:102C40000122C5F888A0D4F8881182401143022ED1
:102C5000C4F88811C5F808911ED00230636044F8AA
:102C600020800020BDE8F087144B03B34FF4C870F8
:102C700001F064FD0446D0B1D5F84831002780E862
:102C80008800C5F8484138460123C4F88871C4F863
:102C90008C71002EE1D0D1E7D4F88C110A43C4F82E
:102CA0008C21DAE705F5A674C5F84841C1E74FF075
:102CB000FF30BDE8F08700BF10D000083D47000896
:102CC00002690B69934200F38D802DE9F04F03F107
:102CD000FF3801F1140700F1140B57F828205BF8B6
:102CE00028304FEA880483B00132B3FBF2F90BEBD2
:102CF0000403009407EB040A0193B9F1000F39D0E3
:102D00000025BC46DE462B465CF8046BDEF800204E
:102D1000B4B209FB0455360C2C0C09FB0644ADB2C9
:102D20005B1BA6B213FA82F3C6EB124606EB2346F0
:102D30009BB243EA0643E2454EF8043B4FEA144592
:102D40004FEA2643E0D2009B5BF8033093B9019C25
:102D5000231F9B450CD254F8043C4BB9A4F1080343
:102D600002E01A68043B1AB99B4508F1FF38F8D312
:102D7000C0F81080044602F051FB00282EDB09F158
:102D800001095D46002357F8041B28688AB29A1A85
:102D9000090C12FA80F2C1EB104303EB224391B20B
:102DA00041EA0341BA4545F8041B4FEA2343EAD2FE
:102DB0005BF828200BEB880382B91A1F93450BD2CE
:102DC00053F8042C42B9083B02E01A68043B1AB9D4
:102DD0009B4508F1FF38F8D3C4F81080484603B08B
:102DE000BDE8F08F002070472DE9F04F57EC106BD5
:102DF0009BB0046C249D009181460592039310EED4
:102E000010AABB4654B1426C626001239340A36098
:102E1000214602F0D5F80023C9F84030BBF1000F7D
:102E20005C4634DB00232B60A14B1A4623409342BF
:102E300016D0002200235046594604F0CFFA5646D9
:102E40005F46804648B3039A01231360259B002BFD
:102E500000F0BE809748186001381BB0BDE8F08FC5
:102E6000039A42F20F731360BAF1000F00F09A80D8
:102E70009148259B002BF0D0C378002B00F0AA804E
:102E800000F10803259A13601BB0BDE8F08F012301
:102E90002BF000442B60A346C6E718AA19A947ECFB
:102EA000106B484602F0F8FB250D0A9040F0838035
:102EB000189D199E2E4406F23243202B40F388823F
:102EC000C3F1400306F212409C402AFA00F020436E
:102ED000FDF734FB0123741EA1F1F8710F9300225A
:102EE000764BFDF7EDF96CA3D3E90023FDF79CFBCE
:102EF0006BA3D3E90023FDF7E5F9064620460F460C
:102F0000FDF72CFB68A3D3E90023FDF78DFB0246F8
:102F10000B4630463946FDF7D5F906460F46FDF714
:102F200095FD0022049000233046394604F060FAF3
:102F3000002840F02882049E162E00F22182604B69
:102F400003EBC603D3E9000152465B4604F06EFA78
:102F5000002800F04282731E049300230D932D1B62
:102F6000B5F1010800F12A8200230793049B002B8E
:102F7000C0F21B8298440C9300230693009B092BFC
:102F80002AD8052B40F34486043B00930026009B7F
:102F9000023B032B00F22386DFE813F02B0324020D
:102FA00036035004444B474AC4F31300002814BFAF
:102FB000184610465DE7CBF3130343F07F51A5F2AB
:102FC000FF345046CDF83C8041F44011189D86E70F
:102FD0003D4842E7C31C55E70021C9F84410484664
:102FE0000C46009101F0C6FF4FF0FF3308930E939B
:102FF00001230990C9F8400005940B93199B002BFD
:10300000C0F2D080049A0E2A00F3CC802C4B03EB44
:10301000C20393ED007B059B002B8DED007BC0F27E
:10302000FE8256465F46DDE900AB304652465B46BF
:103030003946FDF723FCFDF709FD0446FDF78EFA3E
:1030400052465B46FDF7F0FA0B46024639463046DB
:10305000FDF736F9099D04F130032B70089B012B15
:1030600006460F4605F1010561D00022174BFDF71A
:10307000DBFA0022002306460F4604F0AFF90028D1
:103080007DD1CDF81490DDF820A0DDF824B0DDE985
:10309000008928E0AFF3008061436F63A787D23FC8
:1030A000B3C8608B288AC63FFB799F501344D33F37
:1030B0000000F07FD9C30108E8C301080000F83F11
:1030C00048D00008DCC30108D8C301080000244030
:1030D000FDF7AAFA0022002306460F4604F07EF907
:1030E000002840F0AE8342464B4630463946FDF755
:1030F000C5FBFDF7ABFC0446FDF730FA42464B46F4
:10310000FDF792FA02460B4630463946FDF7D8F8ED
:1031100004F1300E05F801EBCBEB050ED645064663
:103120000F464FF00002AE4BD2D1DDF8149032467C
:103130003B4630463946FDF7C5F806460F4602467F
:103140000B46DDE9000104F053F940B932463B4635
:10315000DDE9000104F042F988B1E3070FD515F865
:10316000014C099A6B1E04E09A4200F0FC8313F8AC
:10317000014D392C03F10105F6D001341C700A9978
:10318000484601F01DFF0022049B2A70039A013378
:103190001360259B002B00F09B8309981D601BB0DA
:1031A000BDE8F08F0B9A002A00F00E81009A012AE8
:1031B00040F35782089B069A5F1EBA42C0F28B8387
:1031C000D71B089B002BC0F28084079D089B079AA1
:1031D00001211A4448460792984401F0D5FF06465B
:1031E00065B1B8F1000F09DD4545079A2B46A8BF28
:1031F0004346D21A0792ED1AC3EB0808069B002B30
:1032000040F3F5820B9A002A00F00282002F00F0B2
:10321000FF8131463A46484602F058F80A9A01467C
:103220000646484601F0BAFF0A990446484601F0AE
:10323000C7FE069BDB1B069340F0E981012148464F
:1032400001F0A2FF0C9B0690002B00F015820146B6
:103250001A46484602F03AF8009B0690012B40F3CC
:10326000F3820027069A136902EB8303186901F0C1
:103270003DFFC0F12000404410F01F0000F0FA8133
:10328000C0F12003042B40F3BD84C0F11C00079B58
:103290000344079305448044079B002B05DD21462A
:1032A0001A46484602F062F80446B8F1000F05DD00
:1032B00042460699484602F059F806900D9B002BAD
:1032C00040F07A82089B002B40F393820B9B002BEB
:1032D00040F0F481DDF824B0089FDDF818805D46E9
:1032E00002E001F077FE044641462046FFF7E8FC85
:1032F00000F1300A05F801ABCBEB0503BB424FF000
:103300000A024FF0000321464846EADB099B089A6F
:10331000012AACBF9B1801331D464FF0000B21461C
:103320000122484602F022F806990A9002F076F847
:10333000002840F3058315F8012C09996B1E04E061
:103340008B4200F0748213F8012D392A03F1010534
:10335000F6D001321A700699484601F031FE002E6F
:103360003FF40DAFBBF1000F05D0B34503D0594674
:10337000484601F025FE3146484601F021FEFEE6B2
:1033800001230D93EBE5DDF810804046FDF7E6F8EC
:1033900002460B463046394604F020F800287FF4F8
:1033A000CAAD08F1FF330493C5E5079A049BD21A0E
:1033B0005B420693002307920C93DFE5C8F10003FC
:1033C00007934FF00008D1E5069F079D0B9E07E786
:1033D000C3F120040AFA04F07AE50D90BFE500BFBE
:1033E0000000244000230B93049B059A13440E9382
:1033F0000133002B089340F37D82089C2546002171
:10340000172DC9F844100BD9012204235B0003F1E6
:103410001400A842114602F10102F7D9C9F844107C
:10342000484601F0A7FD0E2C0990C9F840003FF670
:10343000E5AD002E3FF4E2AD04990029CDE910ABD3
:1034400040F39A82904B01F00F020E1103EBC2037E
:10345000F006D3E9004540F146828C4B5046594670
:10346000D3E90823FDF70AFACDE9120106F00F06A9
:103470004FF0030A86B1854FF10709D5204629464A
:10348000D7E90023FDF7D0F80AF1010A04460D46FA
:10349000761007F10807EFD122462B46DDE912012D
:1034A000FDF7ECF906460F460D9B43B10022784B21
:1034B0003046394603F09CFF002840F01A835046FE
:1034C000FDF74CF832463B46FDF7AEF8714B002253
:1034D000FCF7F8FE089B0446A1F15075002B00F0A4
:1034E000DB81049B1693089B12930B9B002B00F02F
:1034F0009482129A644B684903EBC20353E9022396
:103500000020FDF7BBF922462B46FCF7D9FE824688
:103510008B4630463946FDF799FA0446FDF71EF80A
:1035200002460B4630463946FCF7CAFE3034099D48
:10353000E4B206460F462C7002460B4650465946EA
:10354000013503F073FF002850D132463B4600207E
:103550004F49FCF7B5FE02460B465046594603F06C
:1035600065FF002840F00883129A012A40F3F78192
:10357000129B099ACDF84880134498460DE000202C
:103580004349FCF79DFE52465B4603F031FF00289D
:1035900040F0F282454500F0E08150465946002255
:1035A0003E4BFDF741F800223C4B82468B463046AD
:1035B0003946FDF739F80F460646FDF747FA044647
:1035C000FCF7CCFF02460B4630463946FCF778FE46
:1035D0003034E4B252465B4605F8014B06460F46CE
:1035E00003F006FF32463B460028C8D0169B0493E2
:1035F000C5E500230B93059B002B40F380811D46FE
:103600001C460E930893FAE601230B93F3E70A9402
:10361000069A0A99484601F059FE04460EE6089BB0
:10362000002B3FF7FEAC40F04F8100221C4BDDE940
:103630000001FCF7F9FF5B46524603F0EDFE089BE4
:1036400006931E46002800F0EA80059B099DDB4397
:1036500004930699484601F0B3FC002E3FF48FAD69
:1036600089E60F9A002A00F0388203F23343069F5E
:10367000079DACE51C200AE6009B012B40F38082ED
:103680000C9F0120F7E500BF48D0000838D10008A2
:103690000000F03F00001C400000E03F000024401C
:1036A00000001440314600230A22484601F092FCF3
:1036B0000E9B002B064640F38D820893002D05DDFE
:1036C00031462A46484601F051FE0646002F40F09A
:1036D0007C81B046089B099A013BD31808930AF0F5
:1036E00001030A931746DDF818B020465946FFF744
:1036F000E7FA31460546204601F090FE424659461B
:103700008246484601F0ACFEC268834605F13003AC
:10371000002A49D101462046079301F07FFE594611
:103720000590484601F04CFC059A079B2AB9009980
:1037300019B90A99002900F03582BAF1000FC0F2D8
:10374000E38005D1009919B90A99002900F0DC80BD
:10375000002A00F34E81089A3B7007F1010A974254
:10376000554600F05281214600230A22484601F0C6
:1037700031FC4645044631464FF000034FF00A0243
:1037800048460BD001F026FC4146064600230A229B
:10379000484601F01FFC57468046A4E701F01AFC9A
:1037A0005746064680469EE701464846059301F087
:1037B00007FC0122059BC0E70699204601F02EFE7A
:1037C0000028BFF67FAD2146049C0023013C0A225D
:1037D0004846049401F0FEFB0B9B0446002B7FF44B
:1037E00061AF0E9B002B40F3ED81089372E50A9CBC
:1037F00024E5009B022B7FF769AD089B002B40F06E
:103800009D8106990522484601F0E4FB0146069099
:10381000204601F003FE00280A947FF716AF049AB1
:1038200009993123013204920B704D1C11E7049A5F
:1038300001320492099A312313708CE501230B9312
:10384000D2E5DDF814909AE4BAF1000F7FF409ADE7
:10385000CBF31303002B40F03E812BF000473F0DCC
:103860003F052FB1079B0133079308F1010801279A
:103870000C9B0120002B3FF4FEACF3E45046FCF718
:103880006DFE32463B46FCF7CFFE0022BF4BFCF7F5
:1038900019FD0446A1F15075304639460022BC4B53
:1038A000FCF70EFD22462B4606460F4603F0BEFDF2
:1038B000002840F0AE80224605F1004330463946EC
:1038C00003F096FD00284AD0002306931E46BCE66E
:1038D0000998FFF7C2BA069B0C9A0697FB1A1A447E
:1038E0000C9200276DE49DED107B4FF0020A8DEDE8
:1038F000127BBFE51C460021C9F8441090E5012465
:103900000E9408940594F6E7002A9A4611DD2146A4
:103910000122484601F02AFD0699044601F07EFD89
:10392000002840F34881BAF1390F00F0098105F110
:10393000310AB34687F800A07D1C46460A940AE582
:1039400004D11AF0010F01D0F5E4154615F8013C39
:10395000302B05F1FF32F8D0FDE4DDF84880DDE9D9
:1039600010ABFFF74BBB099930220A70049A15F887
:10397000014C0132049200E4049B5C42002C00F0F4
:10398000B380844B04F00F0203EBC203D3E900239E
:10399000DDE91001FCF748FE241106460F4600F051
:1039A00016817D4D4FF0020AE20709D530463946AF
:1039B000D5E90023FCF738FE0AF1010A06460F4656
:1039C000641005F10805EFD16EE57168484601F015
:1039D000D1FA33699A1C0546920006F10C010C30AD
:1039E00001F0C6F929460122484601F0BFFC804695
:1039F00070E6392B00F0A48003F1010AB34687F882
:103A000000A07D1C46460A94A5E4B3469A46464665
:103A100085E4002306931E4601E7129B5D495A1E6A
:103A200001EBC2012B461792D1E900012246FCF7B7
:103A3000FBFDCDE9140139463046FDF707F8044691
:103A4000FCF78CFD0B46024639463046FCF738FC45
:103A5000129B0F4609993034012B06460C7001F178
:103A6000010520D0129B099A13449A46AB460022C6
:103A70004A4B30463946FCF7D7FD0F460646FCF761
:103A8000E5FF0446FCF76AFD303402460B4630463B
:103A90003946FCF715FC0BF8014BDA4506460F4694
:103AA000E5D1179B1D4400223D4BDDE91401FCF7D5
:103AB00009FC32463B4603F09BFC002848D0169B8D
:103AC000049315F8014CFFF74CBB079B089A9D1A0D
:103AD0000023FFF77CBB0027CAE6189B069F079DC3
:103AE000C3F13603FFF773BBDDE910674FF0020A3D
:103AF000DAE4089B002B3FF4C1AE0E9B002B7FF74E
:103B00002EAF0022254B30463946FCF78DFD064688
:103B10000F460AF10100FCF721FD32463B46FCF757
:103B200083FD0022194BFCF7CDFB049A0E9B1293E8
:103B3000013A0446A1F150751692D6E40A9484E540
:103B40003922B3460A9446463A707D1CFFF7F5BB0E
:103B5000DDE9142300201249FCF7B2FB32463B4654
:103B600003F064FC08B9FAE6154615F8013C302B61
:103B700005F1FF32F8D039E5169B0493FFF7F1BA4F
:103B8000BAF1000F7FF47CAD62E600BF00001C407C
:103B90000000144048D0000838D10008000024403C
:103BA0000000E03F392BD3469A46C9D0BBF1000F45
:103BB0003FF7BDAEBDE67FF4BCAE1AF0010F3FF497
:103BC000B8AEB0E6009B022B25DC0E9B0DE64FF055
:103BD000020A69E4009B022B1DDC0E9B6DE50024AC
:103BE000C9F844402146484601F0C4F94FF0FF337C
:103BF00008930E93012309900594C9F840000B9394
:103C0000FFF7FCB93FF448ABC0F13C00FFF73FBB06
:103C10000126FFF7BCB90E9B0893EEE5B1F90C3015
:103C20009AB22DE9F0410D46110780463CD46A68EE
:103C300043F40063002AAB8173DDAC6A002C4BD0E7
:103C40009BB203F48052002192B2D8F80060C8F809
:103C50000010002A69D02A6D5F0705D569682B6BB3
:103C6000521A0BB1EB6BD21A0023E9694046A04708
:103C7000441C3CD0B5F90C302A692A6023F4006357
:103C80000022AB81DB046A6049D4296BC8F800606C
:103C900011B305F14003994202D0404600F0E0F92B
:103CA00000202863BDE8F0812E69AEB12C682E603B
:103CB00090070CBF6B690023A41BAB600AE023468E
:103CC00032466F6AE9694046B8470028A4EB000411
:103CD000064404DD002CF2DC0020BDE8F081AB8955
:103CE00043F04003AB814FF0FF30BDE8F081D8F8DE
:103CF00000201D2AF3D81A4BD34003F0010383F0B0
:103D00000104002BEBD0B5F90C302969296023F4AC
:103D10000063D9046C60AB81B7D5002AB5D12865A2
:103D2000B3E7EA6B002A88DCD6E70123E96940465D
:103D3000A047431C024602D0AB89AC6A8CE7D8F896
:103D40000030002BF8D01D2B01D0162B02D1C8F863
:103D50000060C1E7AB8943F04003AB81BDE8F0816F
:103D60000100402010B5044682B008B1836B53B106
:103D7000B1F90C0008B902B010BD204602B0BDE890
:103D80001040FFF74BBF019100F0FCF80199EFE7FD
:103D900020B1054B01461868FFF7E4BF034B044907
:103DA000186800F0EDBB00BF0800002010D000082C
:103DB000653D000800207047014900F0E1BB00BFED
:103DC000A57000082DE9F04F354B4568C36300240A
:103DD000074600F53B7204230321C0F8E412C0F843
:103DE000E822C0F8E04283B02C606C60AC606C6686
:103DF000EC812C616C61AC61AB81214605F15C000A
:103E00000822FCF7E3FEBE68DFF898B0DFF898A060
:103E1000DFF89890DFF89880C5F820B001230922D8
:103E2000C5F824A0C5F82890C5F82C80ED6121467E
:103E3000F381B28106F15C0034607460B460746632
:103E400034617461B46108220193FCF7BFFEFD6820
:103E5000F66112200222C6F820B0C6F824A0C6F8E7
:103E60002890C6F82C802146A881EA812C606C60DD
:103E7000AC606C662C616C61AC6105F15C00082281
:103E8000FCF7A4FE019BED61C5F820B0C5F824A0A5
:103E9000C5F82890C5F82C80BB6303B0BDE8F08F4F
:103EA000B93D0008055D00082D5D0008695D00084A
:103EB000895D00080020704770B568234D1E03FB24
:103EC00005F50E4605F1740100F048FC044640B1CA
:103ED00000210C30666005F168022160A060FCF7EB
:103EE00075FE204670BD00BF204B70B51D68AB6BE2
:103EF000064613B92846FFF765FF05F538756B6868
:103F0000AC68013B05D521E0013B5A1C04F1680473
:103F10001CD0B4F90C20002AF6D1002501234FF65D
:103F2000FF72E281A38165662560A56065602561F9
:103F30006561A5612946082204F15C00FCF746FE94
:103F4000256365636564A564204670BD2B680BB16D
:103F50001D46D4E704213046FFF7AEFF286008B1C4
:103F60000546CCE70C23336070BD00BF10D00008BD
:103F7000024B0349186800F003BB00BF10D00008D3
:103F8000A5700008836B03B170471BE7704700BF43
:103F9000704700BF704700BF704700BF024B034926
:103FA000186800F0C7BA00BF08000020B53E00083E
:103FB000024B0349186800F0BDBA00BF080000209A
:103FC000B53D0008F8B5234F0C46064600F0CEFF7D
:103FD000BB685D6825F00305291B01F6EF7121F42C
:103FE0007F6121F00F01A1F58054B4F5805F07DBFC
:103FF0000021304604F034FCBB682B44984204D0C6
:10400000304600F0B5FF0020F8BD6142304604F0B4
:1040100027FC01300DD0104BBA6819682D1B45F0F4
:1040200001053046091B5560196000F0A1FF012011
:10403000F8BD0021304604F013FCBA68831A0F2B38
:10404000DEDD064C0449246843F00103001B536085
:104050000860D5E7B4040020E40A0020BC08002072
:10406000002945D02DE9F0410D46804600F07EFF45
:1040700055F8047C6A4927F00103A5F10804E21809
:104080008E685068B24220F0030062D0FE07506094
:104090000BD455F8087CE41B01F1080EA5687545A2
:1040A0003B446FD0E768EF60BD6015186D68ED07A1
:1040B00042D543F001026260E350B3F5007F18D2AD
:1040C000DB085A1C4D6851F83270A76001209B1024
:1040D00000FA03F301EBC2001D430838E0604D60B5
:1040E00041F83240FC604046BDE8F04100F040BF7E
:1040F00070475A0A042A53D89A0902F139077F00F7
:1041000002F1380501EB870051F8272044490838AF
:1041100090424DD0516821F003018B4202D2926847
:104120009042F7D1D068E060A2608460D4604046DD
:10413000BDE8F04100F01CBF95683A4FBD42034412
:104140003FD0D068E86043F0010285606260E350D0
:10415000B3E7FF07034407D455F8082CA41A134407
:10416000A068E268C26090602F4A126843F00100C4
:10417000934260608C60B6D32C4B40461968FFF7C1
:1041800021FFB0E711184968C90744D49168D26883
:10419000CA60034443F0010091606060E350A2E70D
:1041A000142A17D802F15C077F0002F15B05A9E72A
:1041B000AA104B68012505FA02F213434B60024630
:1041C000B1E743F001024C610C61E560A5606260FB
:1041D000E35088E7542A06D81A0B02F16F077F00D4
:1041E00002F16E058EE7B2F5AA7F06D8DA0B02F16E
:1041F00078077F0002F1770584E740F2545082424D
:1042000006D89A0C02F17D077F0002F17C0579E760
:10421000FE277E2576E743F001026260E35062E705
:10422000B4040020BC040020C0080020E00A0020E4
:104230009368002B76D02DE9F04F8B8985B00C4622
:1042400019070190164629D522693AB303F00208EE
:104250001FFA88F0356800282FD04FF00009B44FBE
:10426000C846B246B84543464A4628BF3B46019831
:10427000B8F1000F50D0E169666AB047002871DDDF
:10428000DAF808301B1A8144C0EB0808CAF8083075
:10429000002BE7D1002005B0BDE8F08F2146019842
:1042A000FEF758FC002840F03A81A389356803F0F6
:1042B00002081FFA88F00028CFD113F001095BD162
:1042C0004F4602961FB39A05D4F808802CD547456F
:1042D000C246C0F0A48013F4906F40F0B180206813
:1042E0005246494600F0DEFDA0682368C8EB000096
:1042F0005344A06023603846029A93681B1A814495
:104300003F1A9360002BC5D0A389002FDBD1D5F8CD
:1043100000906F680835D5E7D5F80090D5F804808F
:1043200008359FE70020704720682369984203D82A
:1043300061698F4280F0B780B84528BFB8464246D1
:10434000494600F0AFFDA3682268C8EB030342446E
:10435000A3602260002B49D121460198FFF702FD9E
:10436000002843D0B4F90C3043F040034FF0FF3045
:10437000A38105B0BDE8F08F804602908246814659
:10438000B9F1000F2AD0029B002B4CD02068236982
:104390006269C845C34628BFCB4698425F4604D9E8
:1043A000A36813449B4500F39080934520DB13469C
:1043B000676AE16901985246B847071ED2DDB8EB3B
:1043C000070823D0B368DB1BBA44C7EB0909B36005
:1043D000002B3FF45FAFB9F1000FD4D10023D5F823
:1043E00000A0D5F8049002930835C9E7404683E75A
:1043F0005A46514600F056FDA2682368CBEB0202F4
:104400005B44B8EB0708A2602360DBD1214601982A
:10441000FFF7A8FC0028A5D1CDF80880D2E72068D6
:10442000B846BA465CE74A460A21504600F050FCBE
:1044300000286FD001300123CAEB00080293A5E7E2
:1044400062692068216902EB4208C1EB000A08EBAF
:10445000D8780AF101004FEA6808384440454246DE
:1044600084BF804642465B0542D51146019800F064
:1044700075F98346002855D05246216900F078FC32
:10448000A38923F4906343F08003A381CAEB08035C
:104490000BEB0A00C4F81480C4F810B02060A360CD
:1044A000B846BA461CE76FF00043BB4228BF3B4604
:1044B0004A4693FBF1F30198666A01FB03F3E16955
:1044C000B04700283FF718AF4CE71A465146039310
:1044D00000F0E8FC2268039B01981A442260214600
:1044E000FFF740FC039B00287FF43CAF1F4666E7C4
:1044F000019801F017FA83460028C7D1019D216970
:104500002846FFF7ADFDB4F90C300C2223F08003F0
:104510002A6029E7012309F10108029336E74FF0E9
:10452000FF30B8E6019A0C231360B4F90C301BE796
:1045300000FCFF7F2DE9F04110F538771BD088464D
:1045400000267D68BC68013D0FD4A389012B05F1CD
:10455000FF3506D9B4F90E300133204601D0C047EB
:1045600006436B1C04F16804EFD13F68002FE8D1CB
:104570003046BDE8F0813E463046BDE8F08100BFE0
:104580002DE9F84310F538771FD0884606464FF0DE
:1045900000097D68BC68013D11D4A389012B05F198
:1045A000FF3508D9B4F90E3001332146304602D028
:1045B000C04749EA00096B1C04F16804EDD13F686B
:1045C000002FE6D14846BDE8F883B9464846BDE825
:1045D000F88300BFB2B110B50B491046144601F084
:1045E000E3FB08B9094810BD0849204601F0DCFB8F
:1045F0000028F7D02046064901F0D6FB0028F1D06C
:10460000002010BD01487047ECC3010890C30108A9
:10461000B8C301080048704738040020014B186AED
:10462000704700BF38040020004870475C04002039
:1046300000207047004870477C040020024B0A4667
:1046400001461868FFF7C6BF080000200048704701
:104650007C04002070B50D46B1F90E10002990B011
:1046600014461E4614DB01AA04F017F900280FDBDC
:10467000029A02F47042A2F50052B2FA82F2520992
:104680004FF480634FF400603260236010B070BD5F
:10469000A88900F0800082B2002030601AB1402367
:1046A000236010B070BD4FF480631046236010B0DB
:1046B00070BD00BF8A8992070B4606D501F14302FF
:1046C00001211A601A6159617047F0B583B001ABDE
:1046D0006A460C460546FFF7BDFF00990646284688
:1046E00000F03CF8B4F90C30D0B1019A124F0099A7
:1046F000EF6343F08003A3812060206161611AB9F8
:104700003343A38103B0F0BD2846B4F90E1004F082
:10471000C9F8B4F90C300028F2D043F00103EFE7F8
:104720009A05EFD404F1430243F002030121A3816F
:10473000226022616161E5E7B93D0008024B014654
:10474000186800F00BB800BF08000020024B0146BB
:104750001868FFF785BC00BF080000202DE9F04F66
:1047600001F10B05162D83B0064640F29F8035F00F
:10477000070500F1BF80A94200F2BC8000F0F6FB03
:10478000B5F5FC7FC0F099826B0A00F0BA80042B6B
:1047900000F28781A80900F1390E4FEA4E03383044
:1047A000C64F07EB8303A3F108015C68A14207D160
:1047B000ACE0002A80F2AC80E468A14200F0A68060
:1047C000636823F003035A1B0F2AF2DDBB493C69DF
:1047D00001F1080E744500F0AF81636823F0030314
:1047E0005A1B0F2A00F39581002AC1F814E0C1F882
:1047F00010E080F29E80B3F5007F80F06381DB08DB
:1048000003F1010C01229B1002FA03F34A6851F8EC
:104810003C80C4F8088001EBCC091A43A9F10803D5
:10482000E3604A6041F83C40C8F80C408310012422
:104830009C40944200F28A80144206D120F003008A
:104840006400144200F10400FAD007EBC009CC4622
:104850008046DCF80C108C4507D16FE1002A80F20D
:104860007D81C9688C4500F069814B6823F00303A2
:104870005A1B0F2AF2DD0C46D1F80CC054F8088FF1
:104880004B1945F001054D6042F00101C8F80CC01C
:104890003046CCF808807B613B61C3F80CE0C3F87C
:1048A00008E059609A5000F063FB1FE0102921D8FE
:1048B00000F05CFB102506230220804F07EB8303EA
:1048C000A3F108025C68944200F041816368E168EA
:1048D000A56823F00303234430465A68E96042F098
:1048E00001028D605A6000F043FB0834204603B09B
:1048F000BDE8F08F00240C232046336003B0BDE8F0
:10490000F08F80234FF0400E3F2049E770465DE76F
:104910002344E1685A68A56842F00102E960304624
:104920008D605A6000F024FB0834204603B0BDE8D7
:10493000F08F234430465A6842F001025A6000F07A
:1049400017FB0834204603B0BDE8F08FBC686368ED
:1049500023F00308A84504D3C5EB08030F2B00F38D
:104960009080DFF85C91D7F80834D9F80020013343
:1049700004EB080A2A4400F05C8102F580520F32F1
:1049800022F47F6222F00F0211463046019203F0BA
:1049900067FFB0F1FF3F8346019A00F054818245E2
:1049A00000F2F880D9F80410DA451144C9F804106F
:1049B00000F04E81D7F80834404801331BBFCAEBE2
:1049C0000B0A5144C0F808B4C9F804101BF00701E1
:1049D00000F01281C1F10803C1F580519B440831F8
:1049E0000BEB0203C3F30B03C3EB010A5146304642
:1049F00003F036FF431C00F03C81CBEB0003534433
:104A000043F00103D9F80410C7F808B05144BC4280
:104A1000CBF80430C9F80410DFF8A4A016D0B8F120
:104A20000F0F40F2F7806268A8F10C0323F0070330
:104A3000E01802F001024FF0050E1A430F2B6260DE
:104A4000C0F804E0C0F808E000F21781D9F82C3073
:104A50001B4ABC689942D9F8303088BFD162184AE5
:104A6000994288BF1163626822F003029542A2EB6B
:104A7000050301D80F2B04DC304600F079FA00243E
:104A800034E7621943F0010345F0010565603046E3
:104A9000BA60536000F06CFA0834204603B0BDE8F9
:104AA000F08F142B69D9542B00F29C80280B00F155
:104AB0006F0E4FEA4E036E3072E600BFB404002062
:104AC000E00A00205A0A042A5ED9142A00F2B380B0
:104AD00002F15C0149005B3207EB810C57F82110B1
:104AE000DFF8E081ACF1080C8C4500F088804A6862
:104AF00022F00302934202D289688C45F7D1D1F8A3
:104B00000CC07A68C4F80CC0A160CCF80840CC6036
:104B10008CE6631942F0010745F0010565603046F7
:104B20004B610B61C3F80CE0C3F808E05F609A507A
:104B3000083400F01DFAD9E64A6877E608F1010862
:104B400018F0030F0CF1080C7FF483AE30E0DC6842
:104B5000A34208BF02303FF439AEB7E60B440C461F
:104B60005A68C96854F8085F42F001025A6030463A
:104B7000E9608D6000F0FCF9B8E603F15C0E03F12A
:104B80005B004FEA4E030BE69A0902F13901490036
:104B90003832A1E7BC424B4B3FF404AF9C686268DB
:104BA00022F0030262E759F80839994540F0838002
:104BB00010F0030F00F1FF30F5D17B6823EA040306
:104BC0007B6064009C423FF6C1AE002C3FF4BEAE59
:104BD0001C4240467FF439AE64001C4200F10400E0
:104BE000FAD032E6B3F5AA7F18D8E80B00F1780EB8
:104BF0004FEA4E037730D3E54FF48051F0E60121C0
:104C0000D8F80430921001FA02F21A43C8F80420CE
:104C1000614677E70123CBF804302DE740F2545288
:104C2000934221D8A80C00F17D0E4FEA4E037C3050
:104C3000B6E51032A8E6542A27D81A0B02F16F0104
:104C400049006E3248E7BC68626822F003020DE753
:104C5000CAF30B03002B7FF4ADAE08EB0203BA6876
:104C600043F001035360F1E6FE234FF07F0E7E20F8
:104C700096E501234FF0000AC4E604F1080130462E
:104C8000FFF7EEF9DAF80410E0E6B2F5AA7F05D8EE
:104C9000DA0B02F17801490077321DE740F25451F6
:104CA0008A4205D89A0C02F17D0149007C3213E753
:104CB000FE217E2210E77B6883E7E808431C5B0047
:104CC000FBE500BFB404002000000000000000006D
:104CD00001F0FF01102A2BDB10F0070F08D010F8AD
:104CE000013B013A8B422DD010F0070F42B3F6D1B1
:104CF000F0B441EA012141EA014122F007047FF0CA
:104D000000070023F0E80256083C85EA010586EA20
:104D1000010685FA47F5A3FA87F586FA47F6A5FA5C
:104D200087F68EB9EED1F0BC01F0FF0102F0070268
:104D300032B110F8013B013A83EA010313B1F8D113
:104D40000020704701387047002D06BF35460338F4
:104D5000073815F0010F07D1013015F4807F02BF2D
:104D6000013015F4C03F0130F0BC0138704700BF7E
:104D7000844641EA000313F003036DD1403A41D366
:104D800051F8043B40F8043B51F8043B40F8043B25
:104D900051F8043B40F8043B51F8043B40F8043B15
:104DA00051F8043B40F8043B51F8043B40F8043B05
:104DB00051F8043B40F8043B51F8043B40F8043BF5
:104DC00051F8043B40F8043B51F8043B40F8043BE5
:104DD00051F8043B40F8043B51F8043B40F8043BD5
:104DE00051F8043B40F8043B51F8043B40F8043BC5
:104DF00051F8043B40F8043B51F8043B40F8043BB5
:104E0000403ABDD2303211D351F8043B40F8043B54
:104E100051F8043B40F8043B51F8043B40F8043B94
:104E200051F8043B40F8043B103AEDD20C3205D364
:104E300051F8043B40F8043B043AF9D2043208D05C
:104E4000D2071CBF11F8013B00F8013B01D30B88CE
:104E500003806046704700BF082A13D38B078DD0AC
:104E600010F003038AD0C3F10403D21ADB071CBF7E
:104E700011F8013B00F8013B80D331F8023B20F8E8
:104E8000023B7BE7043AD9D3013A11F8013B00F821
:104E9000013BF9D20B7803704B7843708B788370A9
:104EA000604670478842F0B50DD98B1898420AD2F7
:104EB0008118002A51D09A1A13F8014D01F8014DBA
:104EC0009342F9D1F0BD0F2A48D941EA00039B076C
:104ED00046D100F1100401F11003154653F8106C8F
:104EE00044F8106C53F80C6C44F80C6C53F8086CD4
:104EF00044F8086C103D53F8046C44F8046C0F2D12
:104F000003F1100304F11004E8D8A2F1100323F018
:104F10000F0302F00F0E1033BEF1030F19440344C8
:104F200021D91E1F0D467446043C55F8047B46F8F3
:104F3000047F032CF8D8AEF1040424F003040434F5
:104F40002344214402F0030262B1013B0A4411F8F8
:104F5000014B03F8014F8A42F9D1F0BD0346F3E754
:104F60000346F2E7F0BD7246EEE700BF704700BFB0
:104F7000704700BFC36C70B505460C464BB153F883
:104F8000240080B1026843F8242000230361C36039
:104F900070BD2122042102F055F8E8640346002880
:104FA000EDD1002070BD012101FA04F6721D2846E2
:104FB000920002F047F80028F3D044608660E4E7EE
:104FC00031B1C36C4A6853F82200086043F82210DC
:104FD000704700BFF0B50C6983B00D46064601F17D
:104FE000140E0027DEF8000081B202FB01310B0C29
:104FF000000C02FB003389B2013701EB0341BC42D4
:105000004EF8041B4FEA1343ECDC3BB1AA68944210
:1050100007DA05EB8402013453612C61284603B0A2
:10502000F0BD6968019301313046FFF7A3FF2A699B
:10503000023205F10C01074692000C30FFF798FE92
:10504000F26C6968019B52F82100286042F82150F7
:105050003D46DEE72DE9F843234C089D1F46083303
:1050600084FB034EDB17C3EB6E0EBEF1010F064649
:105070000C46904635DD012300215B009E4501F181
:105080000101FADC3046FFF775FF0123B8F1090F83
:105090004561036121DD04F109094D46444415F8D9
:1050A000013B0146303B0A223046FFF793FFA54201
:1050B000F5D109EB0804083C47450CDDC8EB0707B0
:1050C000274414F8013B0146303B0A223046FFF7E3
:1050D00081FFA742F5D1BDE8F8830A344FF00908F3
:1050E000EAE70021CEE700BF398EE338030C1B044A
:1050F000B3B90004102310F07F4F04BF000208333F
:1051000010F0704F04BF0001043310F0404F04BF93
:1051100080000233002807DB420003D420207047C0
:105120000023E8E7581C704718467047036813F0DF
:10513000070207D0D90720D49A0720D49B08036020
:105140000220704799B209B91B0C102213F0FF0F0F
:1051500004BF1B0A0832190704BF1B090432990750
:1051600004BF9B080232D90704D45B0801D1202078
:1051700070470132036010467047002070475B089B
:1051800003600120704700BF10B50C460121FFF7F6
:10519000F1FE01224461026110BD00BF2DE9F04F14
:1051A0000D691769BD4283B00C46164604DA2A46DB
:1051B00034463D460E461746A368616805EB07086E
:1051C0009845C8BF0131FFF7D5FE00F1140C0CEB78
:1051D0008809CC45009005D26346002143F8041BA2
:1051E0009945FBD806F1140202EB870A04F1140377
:1051F000524503EB850E54D2CDF80490994652F8EF
:10520000043B1FFA83FBBBF1000F20D000204F4668
:105210006646054600E01E4657F8044B3068A1B2CA
:1052200083B20BFB0131240C000C4B190BFB040067
:1052300000EB134099B2334641EA0041BE454FEAC4
:10524000104543F8041BE6D8756052F8043C5FEA49
:10525000134B20D0DCF80030674618464D4600213D
:1052600000E037462C88000C0BFB040001449CB284
:105270003E4644EA014346F8043B786855F8044B3F
:1052800083B2240C0BFB043404EB1143AE454FEA0C
:105290001341E6D87B6092450CF1040CAFD8DDF8E1
:1052A0000490B8F1000F0BDD59F8043CA9F1040992
:1052B0001BB105E059F8043D13B9B8F10108F9D163
:1052C0000098C0F8108003B0BDE8F08F12F003031F
:1052D0002DE9F041144607462ED10E46A4101CD0ED
:1052E000BD6C95B3E3074FF0000806D4641014D0EA
:1052F0002868A8B10546E307F8D52A46314638465E
:10530000FFF74CFFB6B17268FB6C641053F82210C3
:10531000316043F822600646EAD13046BDE8F081AC
:105320002A4629463846FFF739FF2860C0F8008032
:105330000546E0E70646D9E75A1E0B4D002355F80F
:105340002220FFF747FE0646C8E701213846FFF74F
:1053500011FE40F2712101220023416102610546E4
:10536000B8640360BEE700BF38D000082DE9F047FD
:1053700091460A698B684FEA691404EB020808F148
:1053800001059D420E468246496804DD5B009D4250
:1053900001F10101FADC5046FFF7ECFD002C00F1B1
:1053A000140238DD02EB8403002142F8041B93420F
:1053B000FBD1346906F1140119F01F0901EB840EC9
:1053C00021D0C9F1200200240F6807FA09FC4CEA39
:1053D00004049C4643F8044B51F8044B8E4524FAD0
:1053E00002F4F1D8CCF804400CB108F10205DAF867
:1053F0004C307268013D53F822100561316043F86A
:105400002260BDE8F087043B51F8042B43F8042FD9
:105410008E45F9D8EBE71346CBE700BF02690B696D
:10542000D21A13D19B0014301431194410B4034420
:1054300001E098420CD253F8044D51F8042D9442E7
:10544000F7D009D301205DF8044B70471046704730
:1054500000205DF8044B70474FF0FF30F3E700BFCA
:105460002DE9F8430B690F4611695B1A002B904632
:1054700017D1890007F1140208F1140553182944C3
:1054800001E09A425ED253F8046D51F8044DA642F1
:10549000F7D060D23B46144647464FF00109984684
:1054A00006E05DDB07F1140502F114044FF000097A
:1054B0007968FFF75FFDD8F810303E69C0F80C90AE
:1054C00004EB830CA64605EB860700F114040023C9
:1054D0005EF8041B55F8048B8AB213FA88F3090CA2
:1054E0009A1AC1EB184303EB224392B242EA0342F9
:1054F000F44544F8042B4FEA2343E9D8AF4217D9C7
:10550000A446294651F804EB13FA8EF2131403EB68
:105510001E4392B242EA03428F424CF8042B4FEAF8
:105520002343EFD8ED433D4425F0030504352C44D7
:10553000043C22B954F8043D013E002BFAD0066128
:10554000BDE8F8830021FFF715FD01220023026169
:105550004361BDE8F8832C464FF000091546A7E7E4
:105560003B4607F1140408F1140547464FF00109C2
:1055700098469DE7134B10EE902A1A40A2F1507303
:10558000002B04DD0020194641EC100B70475B42F4
:105590001B15132B0DDD143B1E2BDDBFC3F11F03A9
:1055A000012202FA03F301230021184641EC100BFB
:1055B00070474FF40022002042FA03F141EC100B37
:1055C000704700BF0000F07F2DE9F041066900F14F
:1055D000140808EB860656F8047C3846FFF786FD6B
:1055E000C0F120030A280B60A6F1040318DC9845DB
:1055F000C0F10B0238BF56F8083C27FA02F100F15F
:10560000150041F07F5534BFD340002307FA00F066
:1056100045F4401540EA030445EC104BBDE8F08129
:10562000984520D2B0F10B0356F8082C1ED007FA8B
:1056300003F040F07F57C3F1200EA6F1080147F4B4
:10564000401722FA0EF0884547EA000520D256F8A6
:105650000C1C02FA03F021FA0EF31843044645EC41
:10566000104BBDE8F0810B3809D1024647F07F5559
:1056700045F44015144645EC104BBDE8F08107FA9F
:1056800000F040F07F55002045F440150446E6E761
:1056900002FA03F00446E2E72DE9F04357EC106B01
:1056A00083B0884601213C46C7F30A551746FFF7E9
:1056B00061FCC4F3130481460DB144F480140194D9
:1056C0001EB302A840F8086DFFF730FD002834D162
:1056D0009DE80C00C9F81420002B0CBF0121022109
:1056E000C9F81830C9F81010DDB909EB8103A0F230
:1056F0003240C8F800001869FFF7F8FCC0EB411011
:105700003860484603B0BDE8F08301A8FFF70EFDFE
:10571000019BC9F8143001212030C9F81010002D68
:10572000E3D0A5F233450544C0F13500C8F8005078
:105730003860484603B0BDE8F0839DE80C00C0F136
:10574000200103FA01F10A43C3400193C9F8142070
:10575000C2E700BF2DE9F04383B088466946814621
:10576000FFF732FF404601A955EC104BFFF72CFF25
:105770009DE80A00D9F81020D8F81000C91A101AAC
:1057800001EB4013002B57EC106B0DDD05EB0351C3
:105790000D4632463B4620462946FBF76FF841EC62
:1057A000100B03B0BDE8F083A7EB035910EE106AAD
:1057B0004F46EEE7172810B504460ADD08490020D9
:1057C0000022084BFAF730FF013CF9D141EC100BF5
:1057D00010BD054B03EBC00494ED040B10BD00BFDE
:1057E0000000F03F0000244038D0000870B4146975
:1057F00002F1140301394E1103EB84040136A34274
:1058000000EB86060CD2011F53F8045B41F8045FDD
:105810009C42F9D8A31A153B23F003030433184420
:10582000864204D9002340F8043B8642FBD870BC72
:10583000704700BF03694A11934210B400F1140489
:1058400010DA04EB83039C4221D253F8040C043B8E
:1058500018B115E053F8042D92B99C42FAD35DF8C3
:10586000044B704710DD11F01F010DD054F82200D9
:1058700020FA01F303FA01F1884204EB8203E2D03B
:1058800001205DF8044B704704EB8203DBE7002046
:10589000E5E700BF70B50D461446064618B1836BA8
:1058A0000BB9FEF76FFBA368013B002BA36005DB80
:1058B000E8B223685A1C22601D7070BDA269934231
:1058C00002DBE8B20A28F4D1224629463046BDE878
:1058D000704001F059BB00BF114B70B51D68064602
:1058E0000C4625B1AB6B13B92846FEF74BFBA368FA
:1058F000013B002BA36005DBF0B223685A1C226039
:105900001E7070BDA269934202DBF0B20A28F4D186
:10591000224631462846BDE8704001F035BB00BF45
:10592000080000202DE9F04F174683B0002900F051
:10593000C1800E46814607F10B05FFF717FB56F8AD
:1059400004EC162D2EF00304A6F1080840D810220E
:105950001546AF4241D8944275DAC94B996808EBB5
:1059600004008842416800F0D98021F0010303441B
:105970005B68DB077DD51EF0010F35D03946484600
:10598000FEF7ECFE0746E0B156F8043C23F00103B5
:105990004344A0F108029A4200F04481221F242AC5
:1059A00000F23181132A00F2048103463246116865
:1059B00019605168596092689A6031464846FEF70E
:1059C0004FFB4846FFF7D4FA384603B0BDE8F08FE6
:1059D00025F00705002D2A46BBDA0C230020C9F864
:1059E000003003B0BDE8F08F56F8083CC3EB080A5E
:1059F000DAF8043023F0030C04EB0C039342BDDB14
:105A00005746DAF80C1057F8080F221F242AC160F5
:105A1000886000F21781132A40F212813168CAF8B7
:105A200008107168CAF80C101B2A00F22B81083686
:105A30000AF110023168116071685160B1689160BB
:105A40003E461C46D046631B0F2B1DD8D8F80430A9
:105A500003F0010323434444C8F80430636843F06F
:105A6000010363604846FFF783FA304603B0BDE8A0
:105A7000F08F21F003012144914221DBC368826849
:105A80000C46D3609A60DEE7D8F8042008EB0501E5
:105A900002F00102154343F001020B44C8F8045020
:105AA0004A605A6842F0010208315A604846FEF7DF
:105AB000D7FAD7E7114603B0BDE8F04FFEF74EBE68
:105AC0001EF0010F7FF45AAF56F8083CC3EB080AEA
:105AD000DAF8043023F0030C01EB0C0E96458BDB57
:105AE000C36882685746D3609A6057F8081FDAF88F
:105AF0000C30CB60221F242A996000F29980132A6F
:105B000062D93368CAF808307368CAF80C301B2AA7
